:100000000C9448000C9465000C9465000C946500F9
:100010000C9465000C9465000C9465000C946500CC
:100020000C9465000C94ED010C9465000C94650033
:100030000C94D4010C942F020C9465000C94650070
:100040000C9465000C9465000C9465000C9465009C
:100050000C9465000C9465000C9465000C942001D0
:100060000C9465000C9465000C9465000C9465007C
:100070000C9465000C9406020C9465000C946500C9
:100080000C9465000C9465000C9465000C9465005C
:1000900011241FBECFEFCDBFDFE3DEBF18E2A0E02B
:1000A000B8E2E8EAF4E002C005900D92A830B1078A
:1000B000D9F728E2A8E0B8E201C01D92AF30B2073C
:1000C000E1F70E94AB000C9452020C9400001092D5
:1000D0000A28E0E0FAE010A211A2118284E190E087
:1000E00080A791A78EE0808380818160808380E1FA
:1000F00082877894089510920928E0E8FAE088E26F
:1001000090E08487958785E080831286138611822C
:1001100080E1818381E0858378940895E0E0F6E0D2
:1001200080818083808181608083868187608683EF
:10013000848581608487828993898A60828B938B8E
:1001400082858260828784818160848378948085BF
:10015000816080870895CF93DF93C0E6D4E08881E3
:1001600081608883888182608883888184608883B5
:100170000E948E00809106288E8358C080910D28A1
:1001800090910E28059719F481E0809308280E9429
:10019000670080910A288823A1F0E0E0F6E08289D8
:1001A00093898A60828B938B828582608287848127
:1001B0008160848380818260808380858160808784
:1001C00078940E947B00809109288823A1F0E0E0C8
:1001D000F6E0848995898A60848B958B828582601C
:1001E000828784818160848380818D7F8083808504
:1001F000816080877894E0EAF4E085898960858B66
:10020000789410C0E0E9FAE088EC90E08487958764
:1002100085E0808312861386118280E1818381E0EC
:100220008583789480910C288111ECCF80910828E7
:10023000882309F4A3CF80E090E0DF91CF91089567
:100240001F920F920FB60F9211248F939F93AF932B
:10025000BF93EF93FF9380910B28811125C090915C
:100260000928992309F1E0E6F4E0948180910028BF
:10027000982B9483A0E0B6E01B969C911B971B964D
:100280009C939091022896839481892B84838091FA
:100290000628868380910D2890910E2801978093DF
:1002A0000D2890930E2874C0811125C090910A28C2
:1002B000992309F1E0E6F4E0948180910028982BDD
:1002C0009483A0E0B6E01B969C911B971B969C9391
:1002D0009091042896839481892B848380910628A9
:1002E000868380910D2890910E28019680930D2889
:1002F00090930E284DC0882329F190910A289923C4
:1003000009F1E0E6F4E0948180910028982B948331
:10031000A0E0B6E01B969C911B971B969C93909136
:10032000022896839481892B848380910628868372
:1003300080910D2890910E28019780930D2890931D
:100340000E2826C0882321F180910928882301F1F5
:10035000E0E6F4E0948180910028982B9483A0E05B
:10036000B6E01B969C911B971B969C93909104283A
:1003700096839481892B848380910628868380913B
:100380000D2890910E28019680930D2890930E28A9
:10039000F894FF91EF91BF91AF919F918F910F9042
:1003A0000FBE0F901F9018951F920F920FB60F92CD
:1003B00011248F93EF93FF9381E080930928E0E865
:1003C000FAE0868181608683F894FF91EF918F91A6
:1003D0000F900FBE0F901F9018951F920F920FB69F
:1003E0000F9211248F93EF93FF9381E080930A285B
:1003F000E0E9FAE0868181608683F894FF91EF91CD
:100400008F910F900FBE0F901F9018951F920F9213
:100410000FB60F9211248F939F93AF93BF93EF93D7
:10042000FF93E0E6F4E0848190910028892B848397
:10043000A0EAB4E019968C91199719968C9396833B
:1004400081E080930C28F894FF91EF91BF91AF91D8
:100450009F918F910F900FBE0F901F9018951F9234
:100460000F920FB60F9211248F93EF93FF93E0E951
:10047000FAE086818160868310920C28E0E0F6E045
:1004800080818D7F808380858160808781E08093FB
:100490000B28F894FF91EF918F910F900FBE0F9062
:0804A0001F901895F894FFCF9E
:0804A80007000100040002003E
:00000001FF
