S01700004763634170706C69636174696F6E332E7372656359
S11300000C9448000C945A000C945A000C945A0016
S11300100C945A000C945A000C945A000C945A00F4
S11300200C945A000C945A000C945A000C945A00E4
S11300300C9409010C945A000C945A000C945A0024
S11300400C945A000C945A000C945A000C945A00C4
S11300500C945A000C945A000C945A000C945A00B4
S11300600C945A000C945A000C945A000C945A00A4
S11300700C945A000C94A0000C945A000C945A004E
S11300800C945A000C945A000C945A000C945A0084
S113009011241FBECFEFCDBFDFE3DEBF28E2A0E017
S11300A0B8E201C01D92A830B207E1F70E949600A1
S11300B00C9475010C94000088ED84BFE0E6F0E038
S11300C0118284BF81E080838091630080FDFCCF36
S11300D00895E0E6F4E083E0808384818360848390
S11300E00895882339F08FE190E180938C0A9093EE
S11300F08D0A06C08FE098E080938C0A90938D0A55
S1130100E0E8FAE091E090838181876181839583BF
S11301100895E0E9FAE08FE397E28487958791E018
S11301209083818187618183958308950E9469000A
S1130130E0EAF4E085898960858B78947894FECF31
S11301401F920F920FB60F9211242F933F934F9348
S11301505F936F937F938F939F93AF93BF93EF932B
S1130160FF93E0EAF4E081858187809100289091F3
S113017001280196809300289093012881309105ED
S1130180A1F42091022830910328232B71F40E94BA
S11301905C0081E00E9471000E94890081E090E08F
S11301A0809302289093032822C08230910559F449
S11301B020910228309103282130310521F480E078
S11301C00E94710014C0039791F4E0E9FAE0808181
S11301D08E7F8083E0E8FAE080818E7F80831092B6
S11301E00028109201281092022810920328F894F3
S11301F0FF91EF91BF91AF919F918F917F916F91FB
S11302005F914F913F912F910F900FBE0F901F90D0
S113021018951F920F920FB60F9211242F933F93AC
S11302204F935F938F939F93EF93FF9381E080931A
S1130230860A8091042890910528009721F421E0F2
S11302402093660405C0E0E6F4E024812160248361
S11302502091960A213079F52093960A2091062858
S11302603091072820FD04C042E04093660413C087
S1130270A90141705078552334F4415051094E6F0F
S11302805F6F4F5F5F4F4130510529F4E0E6F4E0C2
S11302904481426044832F5F3F4F21703078332381
S11302A034F4215031092E6F3F6F2F5F3F4F20935D
S11302B0062830930728019681709078992324F4B6
S11302C001978E6F9F6F0196809304289093052861
S11302D0FF91EF919F918F915F914F913F912F915A
S11102E00F900FBE0F901F901895F894FFCF4B
S9030000FC
