:100000000C9448000C945A000C945A000C945A001A
:100010000C945A000C945A000C945A000C945A00F8
:100020000C945A000C9483000C945A000C945A00BF
:100030000C945A000C945A000C945A000C945A00D8
:100040000C945A000C945A000C945A000C945A00C8
:100050000C945A000C945A000C945A000C945A00B8
:100060000C945A000C945A000C945A000C945A00A8
:100070000C945A000C945A000C945A000C945A0098
:100080000C945A000C945A000C945A000C945A0088
:1000900011241FBECFEFCDBFDFE3DEBF28E2A0E01B
:1000A000B8E201C01D92A230B207E1F70E945C00E5
:1000B0000C94A0000C940000E0E6F4E080818260E3
:1000C000808382E08683E0E0FAE010A211A2118230
:1000D00084E190E080A791A78EE080838081816099
:1000E000808380E182877894809100289091012814
:1000F000892BD1F3E0E6F4E0848182608483F89474
:1001000080E090E008951F920F920FB60F92112495
:100110008F939F93EF93FF93E0E0FAE01082838543
:10012000838781E090E08093002890930128FF91DD
:10013000EF919F918F910F900FBE0F901F90189588
:04014000F894FFCF61
:00000001FF
