:100000000C9448000C945A000C945A000C945A001A
:100010000C945A000C945A000C945A000C945A00F8
:100020000C945A000C9423030C945A000C945A001C
:100030000C9465030C945A000C945A000C945A00CA
:100040000C945A000C945A000C945A000C945A00C8
:100050000C945A000C945A000C945A000C94A00270
:100060000C945A000C945A000C945A000C945A00A8
:100070000C945A000C944F010C945A000C945A00A2
:100080000C945A000C945A000C945A000C945A0088
:1000900011241FBECFEFCDBFDFE3DEBF28E2A0E01B
:1000A000B8E201C01D92A530B207E1F70E9433010A
:1000B0000C94FF040C940000CF93DF93CDB7DEB710
:1000C00080E096E020E036E0F9012081FC01208309
:1000D00080E096E020E036E0F90120812260FC011A
:1000E000208380E096E020E036E0F9012081216065
:1000F000FC01208380E096E020E036E0F9012681D3
:100100002760FC01268380E096E020E036E0F901DC
:1001100024852160FC01248780E096E020E036E021
:10012000F901228933892A60FC01228B338B80E01C
:1001300096E020E036E0F901248935892461FC014C
:10014000248B358B80E096E020E036E0F9012285B3
:100150002260FC01228780E096E020E036E0F90191
:1001600024812460FC01248380E096E020E036E0D6
:10017000F90120852160FC0120870000DF91CF91EB
:100180000895CF93DF93CDB7DEB780E694E020E605
:1001900034E0F90120812260FC01208380E694E0B4
:1001A00020E634E0F90120812160FC01208380E613
:1001B00094E020E634E0F90120812460FC012083F2
:1001C0000000DF91CF910895CF93DF93CDB7DEB7D5
:1001D00080E09AE0FC0110A211A280E09AE0FC010C
:1001E000118280E09AE02091002830910128FC01E2
:1001F00020A731A780E09AE02EE0FC01208380E078
:100200009AE020E03AE0F90120812160FC0120839E
:1002100080E09AE020E1FC0122870000DF91CF918D
:100220000895CF93DF93CDB7DEB780E89AE021E35E
:1002300039E1FC012487358780E89AE021E0FC0160
:10024000208380E89AE020E83AE0F90121812761E3
:10025000FC01218380E89AE021E0FC012583000075
:10026000DF91CF910895CF93DF93CDB7DEB70E9492
:100270005C000E94C10080EA94E020EA34E0F901C9
:1002800025892960FC01258B80EA94E020EA34E08E
:10029000F90126892960FC01268B7894FFCF1F92F3
:1002A0000F9200903F000F9211242F933F934F9392
:1002B0005F936F937F938F939F93AF93BF93EF93CE
:1002C000FF93CF93DF93CDB7DEB76E97CDBFDEBF81
:1002D000989580EA94E0FC018185882F90E08072F7
:1002E0009927892B39F080910428882319F00E94DE
:1002F000E40001C180EA94E0FC018185882F90E050
:1003000080749927892B49F09091042881E08927EE
:10031000882319F00E941101EEC080E694E027E0E6
:10032000FC01268380E090E0A0E4B0E489839A8316
:10033000AB83BC8320E030E04AE753E469817A81F3
:100340008B819C810E946A04DC01CB018D8B9E8B8A
:10035000AF8BB88F20E030E040E85FE36D897E89A5
:100360008F89988D0E94E40388232CF481E090E02B
:10037000898F9A8F3FC020E03FEF4FE757E46D89A8
:100380007E898F89988D0E94650418164CF520E0AF
:1003900030E040E251E469817A818B819C810E9446
:1003A0006A04DC01CB01BC01CD010E94E903DC0140
:1003B000CB01898F9A8F0FC089E190E08B8F9C8F42
:1003C0008B8D9C8D0197F1F78B8F9C8F898D9A8DEA
:1003D0000197898F9A8F898D9A8D892B69F714C01F
:1003E0006D897E898F89988D0E94E903DC01CB019C
:1003F000898F9A8F898D9A8D8D8F9E8F8D8D9E8DF1
:100400000197F1F78D8F9E8F80E694E027E0FC0145
:10041000248380E090E0A0E4B0E48F839887A987EC
:10042000BA8720E030E04AE753E46F817885898518
:100430009A850E946A04DC01CB018B879C87AD877B
:10044000BE8720E030E040E85FE36B857C858D85EA
:100450009E850E94E40388232CF481E090E08F873E
:10046000988B3FC020E03FEF4FE757E46B857C85DA
:100470008D859E850E94650418164CF520E030E0BD
:1004800040E251E46F81788589859A850E946A04EB
:10049000DC01CB01BC01CD010E94E903DC01CB01F1
:1004A0008F87988B0FC089E190E0898B9A8B89891F
:1004B0009A890197F1F7898B9A8B8F859889019793
:1004C0008F87988B8F859889892B69F714C06B85E6
:1004D0007C858D859E850E94E903DC01CB018F8799
:1004E000988B8F8598898B8B9C8B8B899C890197A6
:1004F000F1F78B8B9C8B80EA94E0FC018185882F3F
:1005000090E08D839E8380EA94E02D81FC01218719
:1005100000006E96CDBFDEBFDF91CF91FF91EF91CE
:10052000BF91AF919F918F917F916F915F914F910B
:100530003F912F910F9000923F000F901F901895C0
:100540001F920F9200903F000F9211242F933F9320
:100550004F935F938F939F93EF93FF93CF93DF938B
:1005600000D0CDB7DEB7989580E096E0FC0183859A
:10057000882F90E089839A8380E096E02981FC01AE
:10058000238780E096E0FC012289338980E096E0B1
:10059000FC0180899189A901481B590BCA018093EC
:1005A00000289093012880E096E0FC0120893189A1
:1005B00080E096E0FC01828993892817390790F43E
:1005C00081E08093042880E694E021E0FC0126830A
:1005D00080E096E020E036E0F90122852D7FFC01E5
:1005E00022871DC080E096E0FC012089318980E0EF
:1005F00096E0FC01848995898217930780F4109214
:10060000042880E694E022E0FC01268380E096E066
:1006100020E036E0F90122852D7FFC012287F89445
:1006200000000F900F90DF91CF91FF91EF919F917C
:100630008F915F914F913F912F910F9000923F00CA
:100640000F901F9018951F920F9200903F000F92ED
:1006500011242F933F938F939F93EF93FF93CF9307
:10066000DF9300D0CDB7DEB7989580E09AE0FC012B
:10067000108280E694E022E0FC01248380E09AE08E
:10068000FC018385882F90E089839A8380E09AE03B
:100690002981FC01238780E096E020E036E0F90123
:1006A00022852260FC01228700000F900F90DF91CD
:1006B000CF91FF91EF919F918F913F912F910F904B
:1006C00000923F000F901F9018951F920F9200907C
:1006D0003F000F9211242F933F938F939F93EF939B
:1006E000FF93CF93DF93CDB7DEB7989580E89AE07C
:1006F00021E0FC01268380910228909103288370D9
:100700009927892B99F480E694E020E634E0F901FA
:1007100024812460FC01248380E694E020E634E018
:10072000F90124812260FC01248329C080910228E0
:100730009091032881709078992324F401978E6F0B
:100740009F6F0196019751F480E694E020E634E033
:10075000F90124812460FC01248311C080910228C6
:100760009091032881709927892B49F480E694E0C1
:1007700020E634E0F90126812460FC012683809183
:1007800002289091032801968093022890930328D1
:1007900080E096E020E036E0F90122852260FC014D
:1007A000228780E89AE0FC0110820000DF91CF915F
:1007B000FF91EF919F918F913F912F910F90009218
:1007C0003F000F901F9018950E94180408F481E0D4
:1007D00008950E94440488F09F5798F0B92F9927F4
:1007E000B751B0F0E1F0660F771F881F991F1AF01C
:1007F000BA95C9F714C0B13091F00E945E04B1E01F
:1008000008950C945E04672F782F8827B85F39F01D
:10081000B93FCCF3869577956795B395D9F73EF4B4
:1008200090958095709561957F4F8F4F9F4F08955C
:10083000990F0008550FAA0BE0E8FEEF16161706F1
:10084000E807F907C0F012161306E407F50798F059
:10085000621B730B840B950B39F40A2661F0232B72
:10086000242B252B21F408950A2609F4A140A695EE
:100870008FEF811D811D089557FD9058440F551F1E
:1008800059F05F3F71F04795880F97FB991F61F012
:100890009F3F79F087950895121613061406551F89
:1008A000F2CF4695F1DF08C0161617061806991FF5
:1008B000F1CF86957105610508940895E894BB27EA
:1008C00066277727CB0197F908950E94180408F44A
:1008D0008FEF08950E947D040C94EE040E94E004C2
:1008E00038F00E94E70420F0952311F00C94D7040F
:1008F0000C94DD0411240C945F040E943C0470F3FA
:10090000959FC1F3950F50E0551F629FF001729FB4
:10091000BB27F00DB11D639FAA27F00DB11DAA1FC3
:10092000649F6627B00DA11D661F829F2227B00D10
:10093000A11D621F739FB00DA11D621F839FA00D9B
:10094000611D221F749F3327A00D611D231F849FEB
:10095000600D211D822F762F6A2F11249F57504042
:100960009AF0F1F088234AF0EE0FFF1FBB1F661FBD
:10097000771F881F91505040A9F79E3F510580F086
:100980000C94D7040C945F045F3FE4F3983ED4F3D7
:10099000869577956795B795F795E7959F5FC1F72A
:1009A000FE2B880F911D9695879597F9089597F9D5
:1009B0009F6780E870E060E008959FEF80EC089505
:1009C00000240A941616170618060906089500242E
:1009D0000A9412161306140605060895092E0394A8
:1009E000000C11F4882352F0BB0F40F4BF2B11F41C
:1009F00060FF04C06F5F7F4F8F4F9F4F0895F89443
:020A0000FFCF26
:00000001FF
